{
  "_format": "hh-sol-artifact-1",
  "contractName": "ByNdVoter",
  "sourceName": "contracts/ByNdVoter.sol",
  "abi": [
    {
      "inputs": [
        {
          "internalType": "address",
          "name": "_musd",
          "type": "address"
        },
        {
          "internalType": "address",
          "name": "_staking",
          "type": "address"
        },
        {
          "internalType": "address",
          "name": "_boostVoter",
          "type": "address"
        }
      ],
      "stateMutability": "nonpayable",
      "type": "constructor"
    },
    {
      "inputs": [
        {
          "internalType": "address",
          "name": "owner",
          "type": "address"
        }
      ],
      "name": "OwnableInvalidOwner",
      "type": "error"
    },
    {
      "inputs": [
        {
          "internalType": "address",
          "name": "account",
          "type": "address"
        }
      ],
      "name": "OwnableUnauthorizedAccount",
      "type": "error"
    },
    {
      "inputs": [],
      "name": "ReentrancyGuardReentrantCall",
      "type": "error"
    },
    {
      "inputs": [
        {
          "internalType": "address",
          "name": "token",
          "type": "address"
        }
      ],
      "name": "SafeERC20FailedOperation",
      "type": "error"
    },
    {
      "anonymous": false,
      "inputs": [
        {
          "indexed": false,
          "internalType": "uint256",
          "name": "count",
          "type": "uint256"
        }
      ],
      "name": "GaugesUpdated",
      "type": "event"
    },
    {
      "anonymous": false,
      "inputs": [
        {
          "indexed": true,
          "internalType": "uint256",
          "name": "epoch",
          "type": "uint256"
        },
        {
          "indexed": true,
          "internalType": "address",
          "name": "keeper",
          "type": "address"
        },
        {
          "indexed": false,
          "internalType": "uint256",
          "name": "totalMUSD",
          "type": "uint256"
        },
        {
          "indexed": false,
          "internalType": "uint256",
          "name": "keeperBounty",
          "type": "uint256"
        },
        {
          "indexed": false,
          "internalType": "uint256",
          "name": "stakerShare",
          "type": "uint256"
        }
      ],
      "name": "Harvested",
      "type": "event"
    },
    {
      "anonymous": false,
      "inputs": [
        {
          "indexed": true,
          "internalType": "uint256",
          "name": "epoch",
          "type": "uint256"
        },
        {
          "indexed": false,
          "internalType": "address",
          "name": "keeper",
          "type": "address"
        }
      ],
      "name": "LocksExtendedMarked",
      "type": "event"
    },
    {
      "anonymous": false,
      "inputs": [
        {
          "indexed": false,
          "internalType": "uint256",
          "name": "newThreshold",
          "type": "uint256"
        }
      ],
      "name": "MinThresholdUpdated",
      "type": "event"
    },
    {
      "anonymous": false,
      "inputs": [
        {
          "indexed": true,
          "internalType": "address",
          "name": "previousOwner",
          "type": "address"
        },
        {
          "indexed": true,
          "internalType": "address",
          "name": "newOwner",
          "type": "address"
        }
      ],
      "name": "OwnershipTransferred",
      "type": "event"
    },
    {
      "anonymous": false,
      "inputs": [
        {
          "indexed": true,
          "internalType": "uint256",
          "name": "epoch",
          "type": "uint256"
        },
        {
          "indexed": false,
          "internalType": "uint256",
          "name": "gaugeCount",
          "type": "uint256"
        }
      ],
      "name": "VotesCast",
      "type": "event"
    },
    {
      "inputs": [],
      "name": "MAX_BPS",
      "outputs": [
        {
          "internalType": "uint256",
          "name": "",
          "type": "uint256"
        }
      ],
      "stateMutability": "view",
      "type": "function"
    },
    {
      "inputs": [],
      "name": "boostVoter",
      "outputs": [
        {
          "internalType": "contract IBoostVoter",
          "name": "",
          "type": "address"
        }
      ],
      "stateMutability": "view",
      "type": "function"
    },
    {
      "inputs": [],
      "name": "bountyBps",
      "outputs": [
        {
          "internalType": "uint256",
          "name": "",
          "type": "uint256"
        }
      ],
      "stateMutability": "view",
      "type": "function"
    },
    {
      "inputs": [],
      "name": "castVotes",
      "outputs": [],
      "stateMutability": "nonpayable",
      "type": "function"
    },
    {
      "inputs": [],
      "name": "currentEpoch",
      "outputs": [
        {
          "internalType": "uint256",
          "name": "",
          "type": "uint256"
        }
      ],
      "stateMutability": "view",
      "type": "function"
    },
    {
      "inputs": [],
      "name": "epochDuration",
      "outputs": [
        {
          "internalType": "uint256",
          "name": "",
          "type": "uint256"
        }
      ],
      "stateMutability": "view",
      "type": "function"
    },
    {
      "inputs": [
        {
          "internalType": "uint256",
          "name": "",
          "type": "uint256"
        }
      ],
      "name": "epochHarvested",
      "outputs": [
        {
          "internalType": "bool",
          "name": "",
          "type": "bool"
        }
      ],
      "stateMutability": "view",
      "type": "function"
    },
    {
      "inputs": [
        {
          "internalType": "uint256",
          "name": "",
          "type": "uint256"
        }
      ],
      "name": "epochLocksExtended",
      "outputs": [
        {
          "internalType": "bool",
          "name": "",
          "type": "bool"
        }
      ],
      "stateMutability": "view",
      "type": "function"
    },
    {
      "inputs": [
        {
          "internalType": "uint256",
          "name": "",
          "type": "uint256"
        }
      ],
      "name": "epochVoted",
      "outputs": [
        {
          "internalType": "bool",
          "name": "",
          "type": "bool"
        }
      ],
      "stateMutability": "view",
      "type": "function"
    },
    {
      "inputs": [],
      "name": "fetchLiveGauges",
      "outputs": [
        {
          "internalType": "address[]",
          "name": "gaugeAddrs",
          "type": "address[]"
        },
        {
          "internalType": "address[]",
          "name": "brideAddrs",
          "type": "address[]"
        },
        {
          "internalType": "uint256[]",
          "name": "claimableAmounts",
          "type": "uint256[]"
        }
      ],
      "stateMutability": "view",
      "type": "function"
    },
    {
      "inputs": [
        {
          "internalType": "uint256",
          "name": "",
          "type": "uint256"
        }
      ],
      "name": "gauges",
      "outputs": [
        {
          "internalType": "address",
          "name": "gauge",
          "type": "address"
        },
        {
          "internalType": "address",
          "name": "bribe",
          "type": "address"
        },
        {
          "internalType": "string",
          "name": "name",
          "type": "string"
        },
        {
          "internalType": "uint256",
          "name": "weightBps",
          "type": "uint256"
        }
      ],
      "stateMutability": "view",
      "type": "function"
    },
    {
      "inputs": [
        {
          "internalType": "address",
          "name": "gauge",
          "type": "address"
        }
      ],
      "name": "getBribeForGauge",
      "outputs": [
        {
          "internalType": "address",
          "name": "",
          "type": "address"
        }
      ],
      "stateMutability": "view",
      "type": "function"
    },
    {
      "inputs": [],
      "name": "getGaugeCount",
      "outputs": [
        {
          "internalType": "uint256",
          "name": "",
          "type": "uint256"
        }
      ],
      "stateMutability": "view",
      "type": "function"
    },
    {
      "inputs": [],
      "name": "getPendingIncentives",
      "outputs": [
        {
          "internalType": "uint256",
          "name": "",
          "type": "uint256"
        }
      ],
      "stateMutability": "view",
      "type": "function"
    },
    {
      "inputs": [],
      "name": "governance",
      "outputs": [
        {
          "internalType": "address",
          "name": "",
          "type": "address"
        }
      ],
      "stateMutability": "view",
      "type": "function"
    },
    {
      "inputs": [],
      "name": "harvestAndDistribute",
      "outputs": [],
      "stateMutability": "nonpayable",
      "type": "function"
    },
    {
      "inputs": [],
      "name": "initEpoch",
      "outputs": [],
      "stateMutability": "nonpayable",
      "type": "function"
    },
    {
      "inputs": [
        {
          "internalType": "address",
          "name": "gauge",
          "type": "address"
        }
      ],
      "name": "isGaugeAlive",
      "outputs": [
        {
          "internalType": "bool",
          "name": "",
          "type": "bool"
        }
      ],
      "stateMutability": "view",
      "type": "function"
    },
    {
      "inputs": [],
      "name": "lastVoteTimestamp",
      "outputs": [
        {
          "internalType": "uint256",
          "name": "",
          "type": "uint256"
        }
      ],
      "stateMutability": "view",
      "type": "function"
    },
    {
      "inputs": [],
      "name": "managedTokenId",
      "outputs": [
        {
          "internalType": "uint256",
          "name": "",
          "type": "uint256"
        }
      ],
      "stateMutability": "view",
      "type": "function"
    },
    {
      "inputs": [],
      "name": "markLocksExtended",
      "outputs": [],
      "stateMutability": "nonpayable",
      "type": "function"
    },
    {
      "inputs": [],
      "name": "minHarvestThreshold",
      "outputs": [
        {
          "internalType": "uint256",
          "name": "",
          "type": "uint256"
        }
      ],
      "stateMutability": "view",
      "type": "function"
    },
    {
      "inputs": [],
      "name": "musd",
      "outputs": [
        {
          "internalType": "contract IERC20",
          "name": "",
          "type": "address"
        }
      ],
      "stateMutability": "view",
      "type": "function"
    },
    {
      "inputs": [],
      "name": "owner",
      "outputs": [
        {
          "internalType": "address",
          "name": "",
          "type": "address"
        }
      ],
      "stateMutability": "view",
      "type": "function"
    },
    {
      "inputs": [],
      "name": "renounceOwnership",
      "outputs": [],
      "stateMutability": "nonpayable",
      "type": "function"
    },
    {
      "inputs": [
        {
          "internalType": "address",
          "name": "_voter",
          "type": "address"
        }
      ],
      "name": "setBoostVoter",
      "outputs": [],
      "stateMutability": "nonpayable",
      "type": "function"
    },
    {
      "inputs": [
        {
          "internalType": "uint256",
          "name": "bps",
          "type": "uint256"
        }
      ],
      "name": "setBountyBps",
      "outputs": [],
      "stateMutability": "nonpayable",
      "type": "function"
    },
    {
      "inputs": [
        {
          "internalType": "uint256",
          "name": "duration",
          "type": "uint256"
        }
      ],
      "name": "setEpochDuration",
      "outputs": [],
      "stateMutability": "nonpayable",
      "type": "function"
    },
    {
      "inputs": [
        {
          "internalType": "address[]",
          "name": "_gauges",
          "type": "address[]"
        },
        {
          "internalType": "address[]",
          "name": "_bribes",
          "type": "address[]"
        },
        {
          "internalType": "string[]",
          "name": "_names",
          "type": "string[]"
        },
        {
          "internalType": "uint256[]",
          "name": "_weightsBps",
          "type": "uint256[]"
        },
        {
          "internalType": "address[][]",
          "name": "_tokens",
          "type": "address[][]"
        }
      ],
      "name": "setGauges",
      "outputs": [],
      "stateMutability": "nonpayable",
      "type": "function"
    },
    {
      "inputs": [
        {
          "internalType": "uint256",
          "name": "_tokenId",
          "type": "uint256"
        }
      ],
      "name": "setManagedTokenId",
      "outputs": [],
      "stateMutability": "nonpayable",
      "type": "function"
    },
    {
      "inputs": [
        {
          "internalType": "uint256",
          "name": "threshold",
          "type": "uint256"
        }
      ],
      "name": "setMinHarvestThreshold",
      "outputs": [],
      "stateMutability": "nonpayable",
      "type": "function"
    },
    {
      "inputs": [],
      "name": "staking",
      "outputs": [
        {
          "internalType": "contract ByNdStaking",
          "name": "",
          "type": "address"
        }
      ],
      "stateMutability": "view",
      "type": "function"
    },
    {
      "inputs": [],
      "name": "timeUntilNextVote",
      "outputs": [
        {
          "internalType": "uint256",
          "name": "",
          "type": "uint256"
        }
      ],
      "stateMutability": "view",
      "type": "function"
    },
    {
      "inputs": [
        {
          "internalType": "address",
          "name": "newGov",
          "type": "address"
        }
      ],
      "name": "transferGovernance",
      "outputs": [],
      "stateMutability": "nonpayable",
      "type": "function"
    },
    {
      "inputs": [
        {
          "internalType": "address",
          "name": "newOwner",
          "type": "address"
        }
      ],
      "name": "transferOwnership",
      "outputs": [],
      "stateMutability": "nonpayable",
      "type": "function"
    },
    {
      "inputs": [],
      "name": "voteWindow",
      "outputs": [
        {
          "internalType": "uint256",
          "name": "",
          "type": "uint256"
        }
      ],
      "stateMutability": "view",
      "type": "function"
    }
  ],
  "bytecode": "0x60c060405260646004555f60055562093a8060065561384060075534801562000026575f80fd5b5060405162002f6d38038062002f6d83398101604081905262000049916200014b565b60017f9b779b17422d0df92223018b32b4d1fa46e071723d6817e2486d003becc55f005533806200009357604051631e4fbdf760e01b81525f600482015260240160405180910390fd5b6200009e81620000e0565b506001600160a01b0392831660805290821660a05260018054919092166001600160a01b03199182161790915560028054909116331790554260085562000192565b5f80546001600160a01b038381166001600160a01b0319831681178455604051919092169283917f8be0079c531659141344cd1fd0a4f28419497f9722a3daafe3b4186f6b6457e09190a35050565b80516001600160a01b038116811462000146575f80fd5b919050565b5f805f606084860312156200015e575f80fd5b62000169846200012f565b925062000179602085016200012f565b915062000189604085016200012f565b90509250925092565b60805160a051612d9d620001d05f395f81816102f10152818161206901526120b401525f81816104450152818161210e01526122720152612d9d5ff3fe608060405234801561000f575f80fd5b5060043610610213575f3560e01c8063715018a61161011f578063b7116d2f116100a9578063e4d8732011610079578063e4d8732014610483578063eaa7f6511461048b578063f2fde38b14610493578063fbb3dc75146104a6578063fd967f47146104b9575f80fd5b8063b7116d2f1461042d578063cab666d014610440578063d38bfff414610467578063dc5e92551461047a575f80fd5b80639c28df3e116100ef5780639c28df3e146103c45780639c7d82eb146103cc578063a9f31105146103df578063b053918714610401578063b0dfa49814610424575f80fd5b8063715018a61461039057806376671808146103985780638da5cb5b146103a15780638fcdc752146103b1575f80fd5b80634cf088d9116101a05780635aa6e675116101705780635aa6e675146103375780635ccc72dc1461034a5780636ab390581461035d5780636d430747146103655780636f1e3beb1461036e575f80fd5b80634cf088d9146102ec5780634e2ef220146103135780634ff0876a1461031b578063549c217714610324575f80fd5b8063202a3288116101e6578063202a32881461027f57806327e32ba3146102b157806330024dfe146102c8578063415307cc146102db57806343d4ed83146102e4575f80fd5b806308291643146102175780630d88db8b146102375780631134646514610262578063154700611461026c575b5f80fd5b61021f6104c2565b60405161022e9392919061274b565b60405180910390f35b61024a6102453660046127a1565b610947565b6040516001600160a01b03909116815260200161022e565b61026a6109b9565b005b60015461024a906001600160a01b031681565b6102a161028d3660046127c3565b600a6020525f908152604090205460ff1681565b604051901515815260200161022e565b6102ba60055481565b60405190815260200161022e565b61026a6102d63660046127c3565b610a42565b6102ba60045481565b61026a610abb565b61024a7f000000000000000000000000000000000000000000000000000000000000000081565b61026a610e56565b6102ba60065481565b61026a6103323660046127c3565b610f0d565b60025461024a906001600160a01b031681565b61026a6103583660046127a1565b610f3c565b6102ba610f88565b6102ba60075481565b6102a161037c3660046127c3565b600c6020525f908152604090205460ff1681565b61026a610fc7565b6102ba60095481565b5f546001600160a01b031661024a565b6102a16103bf3660046127a1565b610fd8565b600d546102ba565b61026a6103da3660046127c3565b611044565b6102a16103ed3660046127c3565b600b6020525f908152604090205460ff1681565b61041461040f3660046127c3565b6110a9565b60405161022e94939291906127da565b6102ba60035481565b61026a61043b366004612890565b611177565b61024a7f000000000000000000000000000000000000000000000000000000000000000081565b61026a6104753660046127a1565b6118b4565b6102ba60085481565b61026a611956565b6102ba61225b565b61026a6104a13660046127a1565b6122e8565b61026a6104b43660046127c3565b612325565b6102ba61271081565b60608060605f60015f9054906101000a90046001600160a01b03166001600160a01b0316631f7b6d326040518163ffffffff1660e01b8152600401602060405180830381865afa158015610518573d5f803e3d5ffd5b505050506040513d601f19601f8201168201806040525081019061053c9190612975565b90505f805b8281101561063d5760015460405163b053918760e01b8152600481018390526001600160a01b0390911690631703e5f990829063b053918790602401602060405180830381865afa158015610598573d5f803e3d5ffd5b505050506040513d601f19601f820116820180604052508101906105bc919061298c565b6040516001600160e01b031960e084901b1681526001600160a01b039091166004820152602401602060405180830381865afa1580156105fe573d5f803e3d5ffd5b505050506040513d601f19601f8201168201806040525081019061062291906129a7565b156106355781610631816129da565b9250505b600101610541565b50806001600160401b03811115610656576106566129f2565b60405190808252806020026020018201604052801561067f578160200160208202803683370190505b509450806001600160401b0381111561069a5761069a6129f2565b6040519080825280602002602001820160405280156106c3578160200160208202803683370190505b509350806001600160401b038111156106de576106de6129f2565b604051908082528060200260200182016040528015610707578160200160208202803683370190505b5092505f805b8381101561093e5760015460405163b053918760e01b8152600481018390525f916001600160a01b03169063b053918790602401602060405180830381865afa15801561075c573d5f803e3d5ffd5b505050506040513d601f19601f82011682018060405250810190610780919061298c565b600154604051631703e5f960e01b81526001600160a01b038084166004830152929350911690631703e5f990602401602060405180830381865afa1580156107ca573d5f803e3d5ffd5b505050506040513d601f19601f820116820180604052508101906107ee91906129a7565b15610935578088848151811061080657610806612a06565b6001600160a01b03928316602091820292909201015260015460405163929c8dcd60e01b8152838316600482015291169063929c8dcd90602401602060405180830381865afa15801561085b573d5f803e3d5ffd5b505050506040513d601f19601f8201168201806040525081019061087f919061298c565b87848151811061089157610891612a06565b6001600160a01b03928316602091820292909201015260015460405163402914f560e01b8152838316600482015291169063402914f590602401602060405180830381865afa1580156108e6573d5f803e3d5ffd5b505050506040513d601f19601f8201168201806040525081019061090a9190612975565b86848151811061091c5761091c612a06565b602090810291909101015282610931816129da565b9350505b5060010161070d565b50505050909192565b60015460405163929c8dcd60e01b81526001600160a01b0383811660048301525f92169063929c8dcd90602401602060405180830381865afa15801561098f573d5f803e3d5ffd5b505050506040513d601f19601f820116820180604052508101906109b3919061298c565b92915050565b6002546001600160a01b031633146109ec5760405162461bcd60e51b81526004016109e390612a1a565b60405180910390fd5b60085415610a3c5760405162461bcd60e51b815260206004820152601e60248201527f42794e64566f7465723a20616c726561647920696e697469616c697a6564000060448201526064016109e3565b42600855565b6002546001600160a01b03163314610a6c5760405162461bcd60e51b81526004016109e390612a1a565b62015180811015610ab65760405162461bcd60e51b8152602060048201526014602482015273109e5399159bdd195c8e881d1bdbc81cda1bdc9d60621b60448201526064016109e3565b600655565b610ac36123a5565b6009545f908152600a602052604090205460ff1615610b245760405162461bcd60e51b815260206004820152601860248201527f42794e64566f7465723a20616c726561647920766f746564000000000000000060448201526064016109e3565b600754600654600854610b379190612a51565b610b419190612a64565b421015610b905760405162461bcd60e51b815260206004820152601f60248201527f42794e64566f7465723a20766f74652077696e646f77206e6f74206f70656e0060448201526064016109e3565b600d54610bdf5760405162461bcd60e51b815260206004820152601860248201527f42794e64566f7465723a206e6f2067617567657320736574000000000000000060448201526064016109e3565b5f60035411610c305760405162461bcd60e51b815260206004820152601b60248201527f42794e64566f7465723a206e6f206d616e6167656420746f6b656e000000000060448201526064016109e3565b600d545f906001600160401b03811115610c4c57610c4c6129f2565b604051908082528060200260200182016040528015610c75578160200160208202803683370190505b50600d549091505f906001600160401b03811115610c9557610c956129f2565b604051908082528060200260200182016040528015610cbe578160200160208202803683370190505b5090505f5b600d54811015610d7857600d8181548110610ce057610ce0612a06565b5f91825260209091206005909102015483516001600160a01b0390911690849083908110610d1057610d10612a06565b60200260200101906001600160a01b031690816001600160a01b031681525050600d8181548110610d4357610d43612a06565b905f5260205f20906005020160030154828281518110610d6557610d65612a06565b6020908102919091010152600101610cc3565b50600154600354604051637ac09bf760e01b81526001600160a01b0390921691637ac09bf791610dae9186908690600401612a77565b5f604051808303815f87803b158015610dc5575f80fd5b505af1158015610dd7573d5f803e3d5ffd5b5050426008555050600980545f908152600a602052604090819020805460ff191660011790559054600d54915190917f9b8a21dc379d90860663116a9d9c45df36f827700d41cb38d238cd657e7c183a91610e3491815260200190565b60405180910390a25050610e5460015f80516020612d4883398151915255565b565b6009545f908152600c602052604090205460ff1615610eb75760405162461bcd60e51b815260206004820152601960248201527f42794e64566f7465723a20616c7265616479206d61726b65640000000000000060448201526064016109e3565b600980545f908152600c6020908152604091829020805460ff191660011790559154905133815290917f79153a4ec4ac35c6b31ad6b297dcd7ec8a36cc82f457b51634f54aba5105ebef910160405180910390a2565b6002546001600160a01b03163314610f375760405162461bcd60e51b81526004016109e390612a1a565b600355565b6002546001600160a01b03163314610f665760405162461bcd60e51b81526004016109e390612a1a565b600180546001600160a01b0319166001600160a01b0392909216919091179055565b5f80600754600654600854610f9d9190612a51565b610fa79190612a64565b9050804210610fb7575f91505090565b610fc14282612a64565b91505090565b610fcf6123c0565b610e545f6123ec565b600154604051631703e5f960e01b81526001600160a01b0383811660048301525f921690631703e5f990602401602060405180830381865afa158015611020573d5f803e3d5ffd5b505050506040513d601f19601f820116820180604052508101906109b391906129a7565b6002546001600160a01b0316331461106e5760405162461bcd60e51b81526004016109e390612a1a565b60058190556040518181527f43bf9465a024484168d02abe1791cf1e39ec4c457ce2d779ee5ba8501bb9b5fb9060200160405180910390a150565b600d81815481106110b8575f80fd5b5f9182526020909120600590910201805460018201546002830180546001600160a01b0393841695509290911692916110f090612aa1565b80601f016020809104026020016040519081016040528092919081815260200182805461111c90612aa1565b80156111675780601f1061113e57610100808354040283529160200191611167565b820191905f5260205f20905b81548152906001019060200180831161114a57829003601f168201915b5050505050908060030154905084565b6002546001600160a01b031633146111a15760405162461bcd60e51b81526004016109e390612a1a565b88871480156111af57508685145b80156111ba57508483145b80156111c557508281145b6112115760405162461bcd60e51b815260206004820152601a60248201527f42794e64566f7465723a206c656e677468206d69736d6174636800000000000060448201526064016109e3565b5f805b8481101561124a5785858281811061122e5761122e612a06565b90506020020135826112409190612a51565b9150600101611214565b5061271081146112a85760405162461bcd60e51b8152602060048201526024808201527f42794e64566f7465723a2077656967687473206d7573742073756d20746f20316044820152630303030360e41b60648201526084016109e3565b6112b3600d5f6125a2565b5f5b8a811015611873575f8c8c838181106112d0576112d0612a06565b90506020020160208101906112e591906127a1565b6001600160a01b031614611695576001546001600160a01b0316631703e5f98d8d8481811061131657611316612a06565b905060200201602081019061132b91906127a1565b6040516001600160e01b031960e084901b1681526001600160a01b039091166004820152602401602060405180830381865afa15801561136d573d5f803e3d5ffd5b505050506040513d601f19601f8201168201806040525081019061139191906129a7565b6113dd5760405162461bcd60e51b815260206004820152601a60248201527f42794e64566f7465723a206761756765206e6f7420616c69766500000000000060448201526064016109e3565b5f808b8b848181106113f1576113f1612a06565b905060200201602081019061140691906127a1565b6001600160a01b031614611440578a8a8381811061142657611426612a06565b905060200201602081019061143b91906127a1565b6114de565b6001546001600160a01b031663929c8dcd8e8e8581811061146357611463612a06565b905060200201602081019061147891906127a1565b6040516001600160e01b031960e084901b1681526001600160a01b039091166004820152602401602060405180830381865afa1580156114ba573d5f803e3d5ffd5b505050506040513d601f19601f820116820180604052508101906114de919061298c565b9050600d6040518060a001604052808f8f868181106114ff576114ff612a06565b905060200201602081019061151491906127a1565b6001600160a01b03168152602001836001600160a01b031681526020018b8b8681811061154357611543612a06565b90506020028101906115559190612ad9565b8080601f0160208091040260200160405190810160405280939291908181526020018383808284375f920191909152505050908252506020018989868181106115a0576115a0612a06565b9050602002013581526020018787868181106115be576115be612a06565b90506020028101906115d09190612b1b565b808060200260200160405190810160405280939291908181526020018383602002808284375f920182905250939094525050835460018082018655948252602091829020845160059092020180546001600160a01b03199081166001600160a01b039384161782559285015195810180549093169590911694909417905550604081015190919060028201906116669082612bab565b50606082015160038201556080820151805161168c9160048401916020909101906125c0565b5050505061186b565b600d6040518060a001604052808e8e858181106116b4576116b4612a06565b90506020020160208101906116c991906127a1565b6001600160a01b031681526020018c8c858181106116e9576116e9612a06565b90506020020160208101906116fe91906127a1565b6001600160a01b031681526020018a8a8581811061171e5761171e612a06565b90506020028101906117309190612ad9565b8080601f0160208091040260200160405190810160405280939291908181526020018383808284375f9201919091525050509082525060200188888581811061177b5761177b612a06565b90506020020135815260200186868581811061179957611799612a06565b90506020028101906117ab9190612b1b565b808060200260200160405190810160405280939291908181526020018383602002808284375f920182905250939094525050835460018082018655948252602091829020845160059092020180546001600160a01b03199081166001600160a01b039384161782559285015195810180549093169590911694909417905550604081015190919060028201906118419082612bab565b5060608201516003820155608082015180516118679160048401916020909101906125c0565b5050505b6001016112b5565b506040518a81527f7f22a54c715ff40ad43ea38d6baadc5a02758635449af8d11bfac1ca99fdcecb9060200160405180910390a15050505050505050505050565b6002546001600160a01b031633146118de5760405162461bcd60e51b81526004016109e390612a1a565b6001600160a01b0381166119345760405162461bcd60e51b815260206004820152601760248201527f42794e64566f7465723a207a65726f206164647265737300000000000000000060448201526064016109e3565b600280546001600160a01b0319166001600160a01b0392909216919091179055565b61195e6123a5565b6009545f818152600a602052604090205460ff1615801561197e57505f81115b80156119a75750600b5f611993600184612a64565b815260208101919091526040015f205460ff165b156119f45760405162461bcd60e51b815260206004820152601c60248201527f42794e64566f7465723a20616c7265616479206861727665737465640000000060448201526064016109e3565b5f818152600a602052604090205460ff16611a515760405162461bcd60e51b815260206004820152601960248201527f42794e64566f7465723a20766f746573206e6f7420636173740000000000000060448201526064016109e3565b5f818152600b602052604090205460ff1615611aaf5760405162461bcd60e51b815260206004820152601c60248201527f42794e64566f7465723a20616c7265616479206861727665737465640000000060448201526064016109e3565b5f818152600b60205260408120805460ff191660011790556009805491611ad5836129da565b9091555050600d545f906001600160401b03811115611af657611af66129f2565b604051908082528060200260200182016040528015611b1f578160200160208202803683370190505b50600d549091505f906001600160401b03811115611b3f57611b3f6129f2565b604051908082528060200260200182016040528015611b7257816020015b6060815260200190600190039081611b5d5790505b50600d549091505f90611b86906005612c6a565b6001600160401b03811115611b9d57611b9d6129f2565b604051908082528060200260200182016040528015611bc6578160200160208202803683370190505b5090505f805b600d54811015611df057600d8181548110611be957611be9612a06565b905f5260205f2090600502016001015f9054906101000a90046001600160a01b0316858281518110611c1d57611c1d612a06565b60200260200101906001600160a01b031690816001600160a01b031681525050600d8181548110611c5057611c50612a06565b905f5260205f209060050201600401805480602002602001604051908101604052809291908181526020018280548015611cb157602002820191905f5260205f20905b81546001600160a01b03168152600190910190602001808311611c93575b5050505050848281518110611cc857611cc8612a06565b60200260200101819052505f5b600d8281548110611ce857611ce8612a06565b905f5260205f20906005020160040180549050811015611de7575f600d8381548110611d1657611d16612a06565b905f5260205f2090600502016004018281548110611d3657611d36612a06565b5f9182526020822001546001600160a01b03169150805b85811015611d9857826001600160a01b0316878281518110611d7157611d71612a06565b60200260200101516001600160a01b031603611d905760019150611d98565b600101611d4d565b5080611ddd57818686611daa816129da565b975081518110611dbc57611dbc612a06565b60200260200101906001600160a01b031690816001600160a01b0316815250505b5050600101611cd5565b50600101611bcc565b505f816001600160401b03811115611e0a57611e0a6129f2565b604051908082528060200260200182016040528015611e33578160200160208202803683370190505b5090505f5b82811015611ee957838181518110611e5257611e52612a06565b60209081029190910101516040516370a0823160e01b81523060048201526001600160a01b03909116906370a0823190602401602060405180830381865afa158015611ea0573d5f803e3d5ffd5b505050506040513d601f19601f82011682018060405250810190611ec49190612975565b828281518110611ed657611ed6612a06565b6020908102919091010152600101611e38565b50600154600354604051637715ee7560e01b81526001600160a01b0390921691637715ee7591611f1f9189918991600401612c81565b5f604051808303815f87803b158015611f36575f80fd5b505af1925050508015611f47575060015b505f805f5b8481101561216d575f868281518110611f6757611f67612a06565b602002602001015190505f858381518110611f8457611f84612a06565b60209081029190910101516040516370a0823160e01b81523060048201526001600160a01b038416906370a0823190602401602060405180830381865afa158015611fd1573d5f803e3d5ffd5b505050506040513d601f19601f82011682018060405250810190611ff59190612975565b611fff9190612a64565b9050805f0361200f575050612165565b5f612710600454836120219190612c6a565b61202b9190612d28565b90505f6120388284612a64565b90508115612054576120546001600160a01b038516338461243b565b801561210c5761208e6001600160a01b0385167f000000000000000000000000000000000000000000000000000000000000000083612475565b60405163b66503cf60e01b81526001600160a01b038581166004830152602482018390527f0000000000000000000000000000000000000000000000000000000000000000169063b66503cf906044015f604051808303815f87803b1580156120f5575f80fd5b505af1158015612107573d5f803e3d5ffd5b505050505b7f00000000000000000000000000000000000000000000000000000000000000006001600160a01b0316846001600160a01b03160361215b57829650600554831061215657600195505b612160565b600195505b505050505b600101611f4c565b508015801561217d57505f600554115b156121ca5760405162461bcd60e51b815260206004820152601a60248201527f42794e64566f7465723a2062656c6f77207468726573686f6c6400000000000060448201526064016109e3565b5f612710600454846121dc9190612c6a565b6121e69190612d28565b90505f6121f38285612a64565b604080518681526020810185905290810182905290915033908b907f2e0573f57987c8f03a65f1e885f5af2a0d4798c420fd5e67f8fcd833cf8d213f9060600160405180910390a350505050505050505050610e5460015f80516020612d4883398151915255565b6040516370a0823160e01b81523060048201525f907f00000000000000000000000000000000000000000000000000000000000000006001600160a01b0316906370a0823190602401602060405180830381865afa1580156122bf573d5f803e3d5ffd5b505050506040513d601f19601f820116820180604052508101906122e39190612975565b905090565b6122f06123c0565b6001600160a01b03811661231957604051631e4fbdf760e01b81525f60048201526024016109e3565b612322816123ec565b50565b6002546001600160a01b0316331461234f5760405162461bcd60e51b81526004016109e390612a1a565b61271081106123a05760405162461bcd60e51b815260206004820152601760248201527f42794e64566f7465723a2062707320746f6f206869676800000000000000000060448201526064016109e3565b600455565b6123ad6124c7565b60025f80516020612d4883398151915255565b5f546001600160a01b03163314610e545760405163118cdaa760e01b81523360048201526024016109e3565b5f80546001600160a01b038381166001600160a01b0319831681178455604051919092169283917f8be0079c531659141344cd1fd0a4f28419497f9722a3daafe3b4186f6b6457e09190a35050565b61244883838360016124f6565b61247057604051635274afe760e01b81526001600160a01b03841660048201526024016109e3565b505050565b6124818383835f612558565b6124705761249283835f6001612558565b6124ba57604051635274afe760e01b81526001600160a01b03841660048201526024016109e3565b6124488383836001612558565b5f80516020612d4883398151915254600203610e5457604051633ee5aeb560e01b815260040160405180910390fd5b60405163a9059cbb60e01b5f8181526001600160a01b038616600452602485905291602083604481808b5af1925060015f5114831661254c578383151615612540573d5f823e3d81fd5b5f873b113d1516831692505b60405250949350505050565b60405163095ea7b360e01b5f8181526001600160a01b038616600452602485905291602083604481808b5af1925060015f5114831661254c578383151615612540573d5f823e3d81fd5b5080545f8255600502905f5260205f20908101906123229190612623565b828054828255905f5260205f20908101928215612613579160200282015b8281111561261357825182546001600160a01b0319166001600160a01b039091161782556020909201916001909101906125de565b5061261f929150612673565b5090565b8082111561261f5780546001600160a01b0319908116825560018201805490911690555f6126546002830182612687565b600382015f9055600482015f61266a91906126be565b50600501612623565b5b8082111561261f575f8155600101612674565b50805461269390612aa1565b5f825580601f106126a2575050565b601f0160209004905f5260205f20908101906123229190612673565b5080545f8255905f5260205f20908101906123229190612673565b5f815180845260208085019450602084015f5b838110156127115781516001600160a01b0316875295820195908201906001016126ec565b509495945050505050565b5f815180845260208085019450602084015f5b838110156127115781518752958201959082019060010161272f565b606081525f61275d60608301866126d9565b828103602084015261276f81866126d9565b90508281036040840152612783818561271c565b9695505050505050565b6001600160a01b0381168114612322575f80fd5b5f602082840312156127b1575f80fd5b81356127bc8161278d565b9392505050565b5f602082840312156127d3575f80fd5b5035919050565b5f60018060a01b0380871683526020818716602085015260806040850152855191508160808501525f5b828110156128205786810182015185820160a001528101612804565b50505f60a0828501015260a0601f19601f83011684010191505082606083015295945050505050565b5f8083601f840112612859575f80fd5b5081356001600160401b0381111561286f575f80fd5b6020830191508360208260051b8501011115612889575f80fd5b9250929050565b5f805f805f805f805f8060a08b8d0312156128a9575f80fd5b8a356001600160401b03808211156128bf575f80fd5b6128cb8e838f01612849565b909c509a5060208d01359150808211156128e3575f80fd5b6128ef8e838f01612849565b909a50985060408d0135915080821115612907575f80fd5b6129138e838f01612849565b909850965060608d013591508082111561292b575f80fd5b6129378e838f01612849565b909650945060808d013591508082111561294f575f80fd5b5061295c8d828e01612849565b915080935050809150509295989b9194979a5092959850565b5f60208284031215612985575f80fd5b5051919050565b5f6020828403121561299c575f80fd5b81516127bc8161278d565b5f602082840312156129b7575f80fd5b815180151581146127bc575f80fd5b634e487b7160e01b5f52601160045260245ffd5b5f600182016129eb576129eb6129c6565b5060010190565b634e487b7160e01b5f52604160045260245ffd5b634e487b7160e01b5f52603260045260245ffd5b60208082526019908201527f42794e64566f7465723a206e6f7420676f7665726e616e636500000000000000604082015260600190565b808201808211156109b3576109b36129c6565b818103818111156109b3576109b36129c6565b838152606060208201525f612a8f60608301856126d9565b8281036040840152612783818561271c565b600181811c90821680612ab557607f821691505b602082108103612ad357634e487b7160e01b5f52602260045260245ffd5b50919050565b5f808335601e19843603018112612aee575f80fd5b8301803591506001600160401b03821115612b07575f80fd5b602001915036819003821315612889575f80fd5b5f808335601e19843603018112612b30575f80fd5b8301803591506001600160401b03821115612b49575f80fd5b6020019150600581901b3603821315612889575f80fd5b601f82111561247057805f5260205f20601f840160051c81016020851015612b855750805b601f840160051c820191505b81811015612ba4575f8155600101612b91565b5050505050565b81516001600160401b03811115612bc457612bc46129f2565b612bd881612bd28454612aa1565b84612b60565b602080601f831160018114612c0b575f8415612bf45750858301515b5f19600386901b1c1916600185901b178555612c62565b5f85815260208120601f198616915b82811015612c3957888601518255948401946001909101908401612c1a565b5085821015612c5657878501515f19600388901b60f8161c191681555b505060018460011b0185555b505050505050565b80820281158282048414176109b3576109b36129c6565b606081525f612c9360608301866126d9565b6020838203818501528186518084528284019150828160051b8501018389015f5b83811015612d1057868303601f190185528151805180855290870190878501905f5b81811015612cfb5783516001600160a01b031683529289019291890191600101612cd6565b50509587019593505090850190600101612cb4565b50508095505050505050826040830152949350505050565b5f82612d4257634e487b7160e01b5f52601260045260245ffd5b50049056fe9b779b17422d0df92223018b32b4d1fa46e071723d6817e2486d003becc55f00a2646970667358221220fec8e992dbee02f89eeef02dbd54a53b86e1152cac7f5c19c4f5cacf942f8c2e64736f6c63430008180033",
  "linkReferences": {},
  "deployedLinkReferences": {}
}