{
  "_format": "hh-sol-artifact-1",
  "contractName": "ByNdVault",
  "sourceName": "contracts/ByNdVault.sol",
  "abi": [
    {
      "inputs": [
        {
          "internalType": "address",
          "name": "_veMEZO",
          "type": "address"
        },
        {
          "internalType": "address",
          "name": "_veBYND",
          "type": "address"
        }
      ],
      "stateMutability": "nonpayable",
      "type": "constructor"
    },
    {
      "inputs": [
        {
          "internalType": "address",
          "name": "owner",
          "type": "address"
        }
      ],
      "name": "OwnableInvalidOwner",
      "type": "error"
    },
    {
      "inputs": [
        {
          "internalType": "address",
          "name": "account",
          "type": "address"
        }
      ],
      "name": "OwnableUnauthorizedAccount",
      "type": "error"
    },
    {
      "inputs": [],
      "name": "ReentrancyGuardReentrantCall",
      "type": "error"
    },
    {
      "anonymous": false,
      "inputs": [
        {
          "indexed": true,
          "internalType": "address",
          "name": "user",
          "type": "address"
        },
        {
          "indexed": true,
          "internalType": "uint256",
          "name": "tokenId",
          "type": "uint256"
        },
        {
          "indexed": false,
          "internalType": "uint256",
          "name": "veByndMinted",
          "type": "uint256"
        }
      ],
      "name": "Deposited",
      "type": "event"
    },
    {
      "anonymous": false,
      "inputs": [
        {
          "indexed": true,
          "internalType": "address",
          "name": "keeper",
          "type": "address"
        },
        {
          "indexed": false,
          "internalType": "uint256",
          "name": "tokenCount",
          "type": "uint256"
        },
        {
          "indexed": false,
          "internalType": "uint256",
          "name": "newUnlockTime",
          "type": "uint256"
        }
      ],
      "name": "LocksExtended",
      "type": "event"
    },
    {
      "anonymous": false,
      "inputs": [
        {
          "indexed": true,
          "internalType": "address",
          "name": "previousOwner",
          "type": "address"
        },
        {
          "indexed": true,
          "internalType": "address",
          "name": "newOwner",
          "type": "address"
        }
      ],
      "name": "OwnershipTransferred",
      "type": "event"
    },
    {
      "anonymous": false,
      "inputs": [
        {
          "indexed": true,
          "internalType": "address",
          "name": "keeper",
          "type": "address"
        },
        {
          "indexed": false,
          "internalType": "uint256",
          "name": "tokenCount",
          "type": "uint256"
        },
        {
          "indexed": false,
          "internalType": "uint256",
          "name": "totalClaimed",
          "type": "uint256"
        }
      ],
      "name": "RebasesClaimed",
      "type": "event"
    },
    {
      "anonymous": false,
      "inputs": [
        {
          "indexed": true,
          "internalType": "address",
          "name": "distributor",
          "type": "address"
        }
      ],
      "name": "RewardsDistributorSet",
      "type": "event"
    },
    {
      "inputs": [],
      "name": "EXTEND_COOLDOWN",
      "outputs": [
        {
          "internalType": "uint256",
          "name": "",
          "type": "uint256"
        }
      ],
      "stateMutability": "view",
      "type": "function"
    },
    {
      "inputs": [],
      "name": "MAXTIME",
      "outputs": [
        {
          "internalType": "uint256",
          "name": "",
          "type": "uint256"
        }
      ],
      "stateMutability": "view",
      "type": "function"
    },
    {
      "inputs": [
        {
          "internalType": "uint256",
          "name": "",
          "type": "uint256"
        }
      ],
      "name": "allTokenIds",
      "outputs": [
        {
          "internalType": "uint256",
          "name": "",
          "type": "uint256"
        }
      ],
      "stateMutability": "view",
      "type": "function"
    },
    {
      "inputs": [],
      "name": "claimRebases",
      "outputs": [
        {
          "internalType": "uint256",
          "name": "totalClaimed",
          "type": "uint256"
        }
      ],
      "stateMutability": "nonpayable",
      "type": "function"
    },
    {
      "inputs": [
        {
          "internalType": "uint256",
          "name": "tokenId",
          "type": "uint256"
        }
      ],
      "name": "deposit",
      "outputs": [],
      "stateMutability": "nonpayable",
      "type": "function"
    },
    {
      "inputs": [
        {
          "internalType": "uint256",
          "name": "",
          "type": "uint256"
        }
      ],
      "name": "depositorOf",
      "outputs": [
        {
          "internalType": "address",
          "name": "",
          "type": "address"
        }
      ],
      "stateMutability": "view",
      "type": "function"
    },
    {
      "inputs": [],
      "name": "extendLocks",
      "outputs": [],
      "stateMutability": "nonpayable",
      "type": "function"
    },
    {
      "inputs": [
        {
          "internalType": "address",
          "name": "user",
          "type": "address"
        }
      ],
      "name": "getUserTokens",
      "outputs": [
        {
          "internalType": "uint256[]",
          "name": "",
          "type": "uint256[]"
        }
      ],
      "stateMutability": "view",
      "type": "function"
    },
    {
      "inputs": [],
      "name": "lastExtendTimestamp",
      "outputs": [
        {
          "internalType": "uint256",
          "name": "",
          "type": "uint256"
        }
      ],
      "stateMutability": "view",
      "type": "function"
    },
    {
      "inputs": [
        {
          "internalType": "address",
          "name": "",
          "type": "address"
        },
        {
          "internalType": "address",
          "name": "",
          "type": "address"
        },
        {
          "internalType": "uint256",
          "name": "",
          "type": "uint256"
        },
        {
          "internalType": "bytes",
          "name": "",
          "type": "bytes"
        }
      ],
      "name": "onERC721Received",
      "outputs": [
        {
          "internalType": "bytes4",
          "name": "",
          "type": "bytes4"
        }
      ],
      "stateMutability": "pure",
      "type": "function"
    },
    {
      "inputs": [],
      "name": "owner",
      "outputs": [
        {
          "internalType": "address",
          "name": "",
          "type": "address"
        }
      ],
      "stateMutability": "view",
      "type": "function"
    },
    {
      "inputs": [],
      "name": "renounceOwnership",
      "outputs": [],
      "stateMutability": "nonpayable",
      "type": "function"
    },
    {
      "inputs": [],
      "name": "rewardsDistributor",
      "outputs": [
        {
          "internalType": "contract IRewardsDistributor",
          "name": "",
          "type": "address"
        }
      ],
      "stateMutability": "view",
      "type": "function"
    },
    {
      "inputs": [
        {
          "internalType": "address",
          "name": "_distributor",
          "type": "address"
        }
      ],
      "name": "setRewardsDistributor",
      "outputs": [],
      "stateMutability": "nonpayable",
      "type": "function"
    },
    {
      "inputs": [],
      "name": "totalDeposited",
      "outputs": [
        {
          "internalType": "uint256",
          "name": "",
          "type": "uint256"
        }
      ],
      "stateMutability": "view",
      "type": "function"
    },
    {
      "inputs": [],
      "name": "totalLockedMEZO",
      "outputs": [
        {
          "internalType": "uint256",
          "name": "total",
          "type": "uint256"
        }
      ],
      "stateMutability": "view",
      "type": "function"
    },
    {
      "inputs": [],
      "name": "totalPendingRebase",
      "outputs": [
        {
          "internalType": "uint256",
          "name": "total",
          "type": "uint256"
        }
      ],
      "stateMutability": "view",
      "type": "function"
    },
    {
      "inputs": [],
      "name": "totalVotingPower",
      "outputs": [
        {
          "internalType": "uint256",
          "name": "total",
          "type": "uint256"
        }
      ],
      "stateMutability": "view",
      "type": "function"
    },
    {
      "inputs": [
        {
          "internalType": "address",
          "name": "newOwner",
          "type": "address"
        }
      ],
      "name": "transferOwnership",
      "outputs": [],
      "stateMutability": "nonpayable",
      "type": "function"
    },
    {
      "inputs": [],
      "name": "veBYND",
      "outputs": [
        {
          "internalType": "contract VeBYND",
          "name": "",
          "type": "address"
        }
      ],
      "stateMutability": "view",
      "type": "function"
    },
    {
      "inputs": [],
      "name": "veMEZO",
      "outputs": [
        {
          "internalType": "contract IVeMEZO",
          "name": "",
          "type": "address"
        }
      ],
      "stateMutability": "view",
      "type": "function"
    }
  ],
  "bytecode": "0x60c060405234801561000f575f80fd5b50604051620013733803806200137383398101604081905261003091610104565b60017f9b779b17422d0df92223018b32b4d1fa46e071723d6817e2486d003becc55f0055338061007957604051631e4fbdf760e01b81525f600482015260240160405180910390fd5b6100828161009a565b506001600160a01b039182166080521660a052610135565b5f80546001600160a01b038381166001600160a01b0319831681178455604051919092169283917f8be0079c531659141344cd1fd0a4f28419497f9722a3daafe3b4186f6b6457e09190a35050565b80516001600160a01b03811681146100ff575f80fd5b919050565b5f8060408385031215610115575f80fd5b61011e836100e9565b915061012c602084016100e9565b90509250929050565b60805160a0516111e46200018f5f395f818161025f015261079801525f81816102280152818161036e01528181610486015281816105590152818161069c01528181610be301528181610c7f0152610d3901526111e45ff3fe608060405234801561000f575f80fd5b5060043610610132575f3560e01c8063af803a14116100b4578063d1f5c33b11610079578063d1f5c33b146102ad578063e8e5536c146102c0578063ee00ef3a146102c8578063f0ac0a5d146102d3578063f2fde38b146102db578063ff50abdc146102ee575f80fd5b8063af803a141461025a578063b6b55f2514610281578063b7423fda14610294578063c627d8a91461029d578063cc65ca63146102a5575f80fd5b806367ba6b53116100fa57806367ba6b53146101de578063715018a6146102065780637d07b2d2146102105780637f5e1e90146102235780638da5cb5b1461024a575f80fd5b8063150b7a02146101365780632693a8b7146101735780633f2a55401461018b578063519dc8d2146101b6578063671b3793146101d6575b5f80fd5b610155610144366004610f32565b630a85bd0160e11b95945050505050565b6040516001600160e01b031990911681526020015b60405180910390f35b61017d62093a8081565b60405190815260200161016a565b60025461019e906001600160a01b031681565b6040516001600160a01b03909116815260200161016a565b6101c96101c4366004610fc9565b6102f6565b60405161016a9190610feb565b61017d61035f565b61019e6101ec36600461102e565b60036020525f90815260409020546001600160a01b031681565b61020e61042c565b005b61017d61021e36600461102e565b61043f565b61019e7f000000000000000000000000000000000000000000000000000000000000000081565b5f546001600160a01b031661019e565b61019e7f000000000000000000000000000000000000000000000000000000000000000081565b61020e61028f36600461102e565b61045e565b61017d60015481565b61017d61084a565b61017d6109b7565b61020e6102bb366004610fc9565b610a7e565b61020e610b25565b61017d630784ce0081565b61017d610d29565b61020e6102e9366004610fc9565b610e10565b60065461017d565b6001600160a01b0381165f9081526004602090815260409182902080548351818402810184019094528084526060939283018282801561035357602002820191905f5260205f20905b81548152602001906001019080831161033f575b50505050509050919050565b5f805b600654811015610428577f00000000000000000000000000000000000000000000000000000000000000006001600160a01b03166303709b10600683815481106103ae576103ae611045565b905f5260205f2001546040518263ffffffff1660e01b81526004016103d591815260200190565b602060405180830381865afa1580156103f0573d5f803e3d5ffd5b505050506040513d601f19601f820116820180604052508101906104149190611059565b61041e9083611070565b9150600101610362565b5090565b610434610e4a565b61043d5f610e76565b565b6006818154811061044e575f80fd5b5f91825260209091200154905081565b610466610ec5565b6040516331a9108f60e11b81526004810182905233906001600160a01b037f00000000000000000000000000000000000000000000000000000000000000001690636352211e90602401602060405180830381865afa1580156104cb573d5f803e3d5ffd5b505050506040513d601f19601f820116820180604052508101906104ef9190611095565b6001600160a01b0316146105415760405162461bcd60e51b8152602060048201526014602482015273213ca7322b30bab63a1d103737ba1037bbb732b960611b60448201526064015b60405180910390fd5b604051635a2d1e0760e11b8152600481018290525f907f00000000000000000000000000000000000000000000000000000000000000006001600160a01b03169063b45a3c0e90602401606060405180830381865afa1580156105a6573d5f803e3d5ffd5b505050506040513d601f19601f820116820180604052508101906105ca91906110c4565b90505f815f0151600f0b136106195760405162461bcd60e51b815260206004820152601560248201527442794e645661756c743a20656d707479206c6f636b60581b6044820152606401610538565b4281602001511161066c5760405162461bcd60e51b815260206004820152601760248201527f42794e645661756c743a206c6f636b20657870697265640000000000000000006044820152606401610538565b8051604051632142170760e11b8152336004820152306024820152604481018490526001600160801b03909116907f00000000000000000000000000000000000000000000000000000000000000006001600160a01b0316906342842e0e906064015f604051808303815f87803b1580156106e5575f80fd5b505af11580156106f7573d5f803e3d5ffd5b5050505f84815260036020908152604080832080546001600160a01b03191633908117909155808452600480845282852080548a875260058652848720819055828652600181810183559187529486209094018990556006805494850181559094527ff652222313e28459528d920b65115c16c04f3efc82aaedc97be59f3f377c0d3f909201879055516340c10f1960e01b815291820152602481018390527f00000000000000000000000000000000000000000000000000000000000000006001600160a01b031691506340c10f19906044015f604051808303815f87803b1580156107e2575f80fd5b505af11580156107f4573d5f803e3d5ffd5b50506040518381528592503391507f73a19dd210f1a7f902193214c0ee91dd35ee5b4d920cba8d519eca65a7b488ca9060200160405180910390a3505061084760015f8051602061118f83398151915255565b50565b5f610853610ec5565b6002546001600160a01b03166108ab5760405162461bcd60e51b815260206004820152601e60248201527f42794e645661756c743a206469737472696275746f72206e6f742073657400006044820152606401610538565b600654806108f45760405162461bcd60e51b815260206004820152601660248201527542794e645661756c743a206e6f206465706f7369747360501b6044820152606401610538565b60025460405163124a913560e31b81526001600160a01b039091169063925489a8906109259060069060040161113b565b6020604051808303815f875af1158015610941573d5f803e3d5ffd5b505050506040513d601f19601f820116820180604052508101906109659190611175565b50604080518281525f602082015233917f3d8b12b0b18d1b77ec9b5317297d6749e9648ccb228c7ed575c53f23317595d7910160405180910390a2505060015f8051602061118f833981519152555f90565b6002545f906001600160a01b03166109ce57505f90565b5f5b60065481101561042857600254600680546001600160a01b039092169163d1d58b25919084908110610a0457610a04611045565b905f5260205f2001546040518263ffffffff1660e01b8152600401610a2b91815260200190565b602060405180830381865afa158015610a46573d5f803e3d5ffd5b505050506040513d601f19601f82011682018060405250810190610a6a9190611059565b610a749083611070565b91506001016109d0565b610a86610e4a565b6001600160a01b038116610adc5760405162461bcd60e51b815260206004820152601760248201527f42794e645661756c743a207a65726f20616464726573730000000000000000006044820152606401610538565b600280546001600160a01b0319166001600160a01b0383169081179091556040517f950a88e6770f863d57a76f0536e93cc7c318c1188c4c189aa9d7a98a6e62f864905f90a250565b62093a80600154610b369190611070565b421015610b855760405162461bcd60e51b815260206004820152601a60248201527f42794e645661756c743a20636f6f6c646f776e206163746976650000000000006044820152606401610538565b4260018190555f90610b9c90630784ce0090611070565b6006549091505f5b81811015610ce9575f60068281548110610bc057610bc0611045565b5f918252602082200154604051635a2d1e0760e11b8152600481018290529092507f00000000000000000000000000000000000000000000000000000000000000006001600160a01b03169063b45a3c0e90602401606060405180830381865afa158015610c30573d5f803e3d5ffd5b505050506040513d601f19601f82011682018060405250810190610c5491906110c4565b90508481602001511015610cdf57604051639d507b8b60e01b815260048101839052602481018690527f00000000000000000000000000000000000000000000000000000000000000006001600160a01b031690639d507b8b906044015f604051808303815f87803b158015610cc8575f80fd5b505af1158015610cda573d5f803e3d5ffd5b505050505b5050600101610ba4565b50604080518281526020810184905233917f14846f4a5c3ef9344b60f2b4aed7f3e2082fb27c3959746adff368f08d28ea0e910160405180910390a25050565b5f805b600654811015610428575f7f00000000000000000000000000000000000000000000000000000000000000006001600160a01b031663b45a3c0e60068481548110610d7957610d79611045565b905f5260205f2001546040518263ffffffff1660e01b8152600401610da091815260200190565b606060405180830381865afa158015610dbb573d5f803e3d5ffd5b505050506040513d601f19601f82011682018060405250810190610ddf91906110c4565b90505f815f0151600f0b1315610e07578051610e04906001600160801b031684611070565b92505b50600101610d2c565b610e18610e4a565b6001600160a01b038116610e4157604051631e4fbdf760e01b81525f6004820152602401610538565b61084781610e76565b5f546001600160a01b0316331461043d5760405163118cdaa760e01b8152336004820152602401610538565b5f80546001600160a01b038381166001600160a01b0319831681178455604051919092169283917f8be0079c531659141344cd1fd0a4f28419497f9722a3daafe3b4186f6b6457e09190a35050565b610ecd610ee0565b60025f8051602061118f83398151915255565b610ef95f60025f8051602061118f833981519152610f17565b1561043d57604051633ee5aeb560e01b815260040160405180910390fd5b5414919050565b6001600160a01b0381168114610847575f80fd5b5f805f805f60808688031215610f46575f80fd5b8535610f5181610f1e565b94506020860135610f6181610f1e565b935060408601359250606086013567ffffffffffffffff80821115610f84575f80fd5b818801915088601f830112610f97575f80fd5b813581811115610fa5575f80fd5b896020828501011115610fb6575f80fd5b9699959850939650602001949392505050565b5f60208284031215610fd9575f80fd5b8135610fe481610f1e565b9392505050565b602080825282518282018190525f9190848201906040850190845b8181101561102257835183529284019291840191600101611006565b50909695505050505050565b5f6020828403121561103e575f80fd5b5035919050565b634e487b7160e01b5f52603260045260245ffd5b5f60208284031215611069575f80fd5b5051919050565b8082018082111561108f57634e487b7160e01b5f52601160045260245ffd5b92915050565b5f602082840312156110a5575f80fd5b8151610fe481610f1e565b805180151581146110bf575f80fd5b919050565b5f606082840312156110d4575f80fd5b6040516060810181811067ffffffffffffffff8211171561110357634e487b7160e01b5f52604160045260245ffd5b6040528251600f81900b8114611117575f80fd5b81526020838101519082015261112f604084016110b0565b60408201529392505050565b602080825282548282018190525f8481528281209092916040850190845b8181101561102257835483526001938401939285019201611159565b5f60208284031215611185575f80fd5b610fe4826110b056fe9b779b17422d0df92223018b32b4d1fa46e071723d6817e2486d003becc55f00a2646970667358221220afcd8264a58e214d737b67425e171f63c3f120483f19c57562aa6162218ab92764736f6c63430008180033",
  "linkReferences": {},
  "deployedLinkReferences": {}
}