{
  "_format": "hh-sol-artifact-1",
  "contractName": "ByNdStaking",
  "sourceName": "contracts/ByNdStaking.sol",
  "abi": [
    {
      "inputs": [
        {
          "internalType": "address",
          "name": "_stakingToken",
          "type": "address"
        },
        {
          "internalType": "address",
          "name": "_musd",
          "type": "address"
        },
        {
          "internalType": "address",
          "name": "_distributor",
          "type": "address"
        }
      ],
      "stateMutability": "nonpayable",
      "type": "constructor"
    },
    {
      "inputs": [
        {
          "internalType": "address",
          "name": "owner",
          "type": "address"
        }
      ],
      "name": "OwnableInvalidOwner",
      "type": "error"
    },
    {
      "inputs": [
        {
          "internalType": "address",
          "name": "account",
          "type": "address"
        }
      ],
      "name": "OwnableUnauthorizedAccount",
      "type": "error"
    },
    {
      "inputs": [],
      "name": "ReentrancyGuardReentrantCall",
      "type": "error"
    },
    {
      "inputs": [
        {
          "internalType": "address",
          "name": "token",
          "type": "address"
        }
      ],
      "name": "SafeERC20FailedOperation",
      "type": "error"
    },
    {
      "anonymous": false,
      "inputs": [
        {
          "indexed": true,
          "internalType": "address",
          "name": "newDistributor",
          "type": "address"
        }
      ],
      "name": "DistributorUpdated",
      "type": "event"
    },
    {
      "anonymous": false,
      "inputs": [
        {
          "indexed": true,
          "internalType": "address",
          "name": "previousOwner",
          "type": "address"
        },
        {
          "indexed": true,
          "internalType": "address",
          "name": "newOwner",
          "type": "address"
        }
      ],
      "name": "OwnershipTransferred",
      "type": "event"
    },
    {
      "anonymous": false,
      "inputs": [
        {
          "indexed": true,
          "internalType": "address",
          "name": "user",
          "type": "address"
        },
        {
          "indexed": true,
          "internalType": "address",
          "name": "token",
          "type": "address"
        },
        {
          "indexed": false,
          "internalType": "uint256",
          "name": "amount",
          "type": "uint256"
        }
      ],
      "name": "RewardClaimed",
      "type": "event"
    },
    {
      "anonymous": false,
      "inputs": [
        {
          "indexed": true,
          "internalType": "address",
          "name": "token",
          "type": "address"
        },
        {
          "indexed": false,
          "internalType": "uint256",
          "name": "amount",
          "type": "uint256"
        }
      ],
      "name": "RewardNotified",
      "type": "event"
    },
    {
      "anonymous": false,
      "inputs": [
        {
          "indexed": true,
          "internalType": "address",
          "name": "token",
          "type": "address"
        }
      ],
      "name": "RewardTokenAdded",
      "type": "event"
    },
    {
      "anonymous": false,
      "inputs": [
        {
          "indexed": true,
          "internalType": "address",
          "name": "user",
          "type": "address"
        },
        {
          "indexed": false,
          "internalType": "uint256",
          "name": "amount",
          "type": "uint256"
        }
      ],
      "name": "Staked",
      "type": "event"
    },
    {
      "anonymous": false,
      "inputs": [
        {
          "indexed": true,
          "internalType": "address",
          "name": "user",
          "type": "address"
        },
        {
          "indexed": false,
          "internalType": "uint256",
          "name": "amount",
          "type": "uint256"
        }
      ],
      "name": "Unstaked",
      "type": "event"
    },
    {
      "inputs": [],
      "name": "claimAll",
      "outputs": [],
      "stateMutability": "nonpayable",
      "type": "function"
    },
    {
      "inputs": [
        {
          "internalType": "address",
          "name": "token",
          "type": "address"
        }
      ],
      "name": "claimReward",
      "outputs": [],
      "stateMutability": "nonpayable",
      "type": "function"
    },
    {
      "inputs": [],
      "name": "claimRewards",
      "outputs": [],
      "stateMutability": "nonpayable",
      "type": "function"
    },
    {
      "inputs": [
        {
          "internalType": "address",
          "name": "token",
          "type": "address"
        },
        {
          "internalType": "address",
          "name": "user",
          "type": "address"
        }
      ],
      "name": "claimable",
      "outputs": [
        {
          "internalType": "uint256",
          "name": "",
          "type": "uint256"
        }
      ],
      "stateMutability": "view",
      "type": "function"
    },
    {
      "inputs": [
        {
          "internalType": "address",
          "name": "user",
          "type": "address"
        }
      ],
      "name": "claimableAll",
      "outputs": [
        {
          "internalType": "address[]",
          "name": "tokens",
          "type": "address[]"
        },
        {
          "internalType": "uint256[]",
          "name": "amounts",
          "type": "uint256[]"
        }
      ],
      "stateMutability": "view",
      "type": "function"
    },
    {
      "inputs": [
        {
          "internalType": "address",
          "name": "user",
          "type": "address"
        }
      ],
      "name": "claimableMUSD",
      "outputs": [
        {
          "internalType": "uint256",
          "name": "",
          "type": "uint256"
        }
      ],
      "stateMutability": "view",
      "type": "function"
    },
    {
      "inputs": [],
      "name": "distributor",
      "outputs": [
        {
          "internalType": "address",
          "name": "",
          "type": "address"
        }
      ],
      "stateMutability": "view",
      "type": "function"
    },
    {
      "inputs": [
        {
          "internalType": "address",
          "name": "user",
          "type": "address"
        }
      ],
      "name": "earned",
      "outputs": [
        {
          "internalType": "uint256",
          "name": "",
          "type": "uint256"
        }
      ],
      "stateMutability": "view",
      "type": "function"
    },
    {
      "inputs": [
        {
          "internalType": "address",
          "name": "",
          "type": "address"
        }
      ],
      "name": "isRewardToken",
      "outputs": [
        {
          "internalType": "bool",
          "name": "",
          "type": "bool"
        }
      ],
      "stateMutability": "view",
      "type": "function"
    },
    {
      "inputs": [
        {
          "internalType": "address",
          "name": "token",
          "type": "address"
        },
        {
          "internalType": "uint256",
          "name": "amount",
          "type": "uint256"
        }
      ],
      "name": "notifyRewardAmount",
      "outputs": [],
      "stateMutability": "nonpayable",
      "type": "function"
    },
    {
      "inputs": [],
      "name": "owner",
      "outputs": [
        {
          "internalType": "address",
          "name": "",
          "type": "address"
        }
      ],
      "stateMutability": "view",
      "type": "function"
    },
    {
      "inputs": [],
      "name": "renounceOwnership",
      "outputs": [],
      "stateMutability": "nonpayable",
      "type": "function"
    },
    {
      "inputs": [
        {
          "internalType": "address",
          "name": "",
          "type": "address"
        }
      ],
      "name": "rewardData",
      "outputs": [
        {
          "internalType": "uint256",
          "name": "rewardPerTokenStored",
          "type": "uint256"
        }
      ],
      "stateMutability": "view",
      "type": "function"
    },
    {
      "inputs": [],
      "name": "rewardTokenCount",
      "outputs": [
        {
          "internalType": "uint256",
          "name": "",
          "type": "uint256"
        }
      ],
      "stateMutability": "view",
      "type": "function"
    },
    {
      "inputs": [
        {
          "internalType": "uint256",
          "name": "",
          "type": "uint256"
        }
      ],
      "name": "rewardTokens",
      "outputs": [
        {
          "internalType": "address",
          "name": "",
          "type": "address"
        }
      ],
      "stateMutability": "view",
      "type": "function"
    },
    {
      "inputs": [
        {
          "internalType": "address",
          "name": "",
          "type": "address"
        },
        {
          "internalType": "address",
          "name": "",
          "type": "address"
        }
      ],
      "name": "rewards",
      "outputs": [
        {
          "internalType": "uint256",
          "name": "",
          "type": "uint256"
        }
      ],
      "stateMutability": "view",
      "type": "function"
    },
    {
      "inputs": [
        {
          "internalType": "address",
          "name": "_distributor",
          "type": "address"
        }
      ],
      "name": "setDistributor",
      "outputs": [],
      "stateMutability": "nonpayable",
      "type": "function"
    },
    {
      "inputs": [
        {
          "internalType": "uint256",
          "name": "amount",
          "type": "uint256"
        }
      ],
      "name": "stake",
      "outputs": [],
      "stateMutability": "nonpayable",
      "type": "function"
    },
    {
      "inputs": [
        {
          "internalType": "address",
          "name": "",
          "type": "address"
        }
      ],
      "name": "stakedBalance",
      "outputs": [
        {
          "internalType": "uint256",
          "name": "",
          "type": "uint256"
        }
      ],
      "stateMutability": "view",
      "type": "function"
    },
    {
      "inputs": [],
      "name": "stakingToken",
      "outputs": [
        {
          "internalType": "contract IERC20",
          "name": "",
          "type": "address"
        }
      ],
      "stateMutability": "view",
      "type": "function"
    },
    {
      "inputs": [],
      "name": "totalStaked",
      "outputs": [
        {
          "internalType": "uint256",
          "name": "",
          "type": "uint256"
        }
      ],
      "stateMutability": "view",
      "type": "function"
    },
    {
      "inputs": [
        {
          "internalType": "address",
          "name": "newOwner",
          "type": "address"
        }
      ],
      "name": "transferOwnership",
      "outputs": [],
      "stateMutability": "nonpayable",
      "type": "function"
    },
    {
      "inputs": [
        {
          "internalType": "uint256",
          "name": "amount",
          "type": "uint256"
        }
      ],
      "name": "unstake",
      "outputs": [],
      "stateMutability": "nonpayable",
      "type": "function"
    },
    {
      "inputs": [
        {
          "internalType": "address",
          "name": "",
          "type": "address"
        },
        {
          "internalType": "address",
          "name": "",
          "type": "address"
        }
      ],
      "name": "userRewardPerTokenPaid",
      "outputs": [
        {
          "internalType": "uint256",
          "name": "",
          "type": "uint256"
        }
      ],
      "stateMutability": "view",
      "type": "function"
    }
  ],
  "bytecode": "0x60a060405234801562000010575f80fd5b506040516200191b3803806200191b833981016040819052620000339162000232565b60017f9b779b17422d0df92223018b32b4d1fa46e071723d6817e2486d003becc55f005533806200007e57604051631e4fbdf760e01b81525f60048201526024015b60405180910390fd5b6200008981620000c3565b506001600160a01b03838116608052600180546001600160a01b031916918316919091179055620000ba8262000112565b50505062000279565b5f80546001600160a01b038381166001600160a01b0319831681178455604051919092169283917f8be0079c531659141344cd1fd0a4f28419497f9722a3daafe3b4186f6b6457e09190a35050565b6001600160a01b0381166200016a5760405162461bcd60e51b815260206004820152601960248201527f42794e645374616b696e673a207a65726f206164647265737300000000000000604482015260640162000075565b6001600160a01b0381165f9081526006602052604090205460ff1662000213576001600160a01b0381165f81815260066020526040808220805460ff1916600190811790915560058054918201815583527f036b6384b5eca791c62761152d0c79bb0604c104a5fb6f4eb0703f3154bb3db00180546001600160a01b03191684179055517ff3e4c2c64e71e6ba2eaab9a599bced62f9eb91d2cda610bf41aa8c80ff2cf8269190a25b50565b80516001600160a01b03811681146200022d575f80fd5b919050565b5f805f6060848603121562000245575f80fd5b620002508462000216565b9250620002606020850162000216565b9150620002706040850162000216565b90509250925092565b60805161167b620002a05f395f818161022f0152818161058c0152610af9015261167b5ff3fe608060405234801561000f575f80fd5b5060043610610152575f3560e01c80638da5cb5b116100bf578063d1058e5911610079578063d1058e591461031b578063d279c19114610323578063d4570c1c14610336578063e70b9e2714610349578063f2fde38b14610373578063f73599fc14610156575f80fd5b80638da5cb5b14610298578063a694fc3a146102a8578063abb06b95146102bb578063b5fd73f8146102c3578063b66503cf146102f5578063bfe1092814610308575f80fd5b80637035ab98116101105780637035ab98146101f8578063715018a61461022257806372f702f31461022a57806375619ab5146102695780637bb7bed11461027c578063817b1cd21461028f575f80fd5b80628cc262146101565780632e17de781461017c578063372500ab1461019157806348e5d9f8146101995780635aacb6f3146101b857806360217267146101d9575b5f80fd5b610169610164366004611482565b610386565b6040519081526020015b60405180910390f35b61018f61018a36600461149b565b6103ce565b005b61018f610604565b6101696101a7366004611482565b60026020525f908152604090205481565b6101cb6101c6366004611482565b6107bc565b6040516101739291906114b2565b6101696101e7366004611482565b60086020525f908152604090205481565b610169610206366004611534565b600360209081525f928352604080842090915290825290205481565b61018f610914565b6102517f000000000000000000000000000000000000000000000000000000000000000081565b6040516001600160a01b039091168152602001610173565b61018f610277366004611482565b610925565b61025161028a36600461149b565b610976565b61016960075481565b5f546001600160a01b0316610251565b61018f6102b636600461149b565b61099e565b600554610169565b6102e56102d1366004611482565b60066020525f908152604090205460ff1681565b6040519015158152602001610173565b61018f610303366004611565565b610b53565b600154610251906001600160a01b031681565b61018f610d4e565b61018f610331366004611482565b610eea565b610169610344366004611534565b611069565b610169610357366004611534565b600460209081525f928352604080842090915290825290205481565b61018f610381366004611482565b61110f565b6005545f90810361039857505f919050565b6103c860055f815481106103ae576103ae61158d565b5f918252602090912001546001600160a01b031683611069565b92915050565b6103d6611149565b60055433905f5b81811015610498575f600582815481106103f9576103f961158d565b5f918252602090912001546001600160a01b0316905061041881611164565b6001600160a01b038083165f9081526002602052604090209190915584161561048f576104458185611069565b6001600160a01b038083165f818152600460209081526040808320948a16808452948252808320959095559181526002825283812054600383528482209382529290915291909120555b506001016103dd565b505f83116104e75760405162461bcd60e51b8152602060048201526017602482015276042794e645374616b696e673a20616d6f756e74203d203604c1b60448201526064015b60405180910390fd5b335f908152600860205260409020548311156105455760405162461bcd60e51b815260206004820152601960248201527f42794e645374616b696e673a20696e73756666696369656e740000000000000060448201526064016104de565b8260075f82825461055691906115b5565b9091555050335f90815260086020526040812080548592906105799084906115b5565b909155506105b390506001600160a01b037f000000000000000000000000000000000000000000000000000000000000000016338561117e565b60405183815233907f0f5bb82176feb1b5e747e28471aa92156a04d9f3ab9f45f28e2d704232b93f75906020015b60405180910390a2505061060160015f8051602061162683398151915255565b50565b61060c611149565b60055433905f5b818110156106ce575f6005828154811061062f5761062f61158d565b5f918252602090912001546001600160a01b0316905061064e81611164565b6001600160a01b038083165f908152600260205260409020919091558416156106c55761067b8185611069565b6001600160a01b038083165f818152600460209081526040808320948a16808452948252808320959095559181526002825283812054600383528482209382529290915291909120555b50600101610613565b506005545f5b818110156107a0575f600582815481106106f0576106f061158d565b5f9182526020808320909101546001600160a01b03168083526004825260408084203385529092529120549091508015610796576001600160a01b0382165f81815260046020908152604080832033808552925282209190915561075591908361117e565b6040518181526001600160a01b0383169033907f0aa4d283470c904c551d18bb894d37e17674920f3261a7f854be501e25f421b79060200160405180910390a35b50506001016106d4565b505050506107ba60015f8051602061162683398151915255565b565b60055460609081908067ffffffffffffffff8111156107dd576107dd6115c8565b604051908082528060200260200182016040528015610806578160200160208202803683370190505b5092508067ffffffffffffffff811115610822576108226115c8565b60405190808252806020026020018201604052801561084b578160200160208202803683370190505b5091505f5b8181101561090d576005818154811061086b5761086b61158d565b905f5260205f20015f9054906101000a90046001600160a01b03168482815181106108985761089861158d565b60200260200101906001600160a01b031690816001600160a01b0316815250506108e8600582815481106108ce576108ce61158d565b5f918252602090912001546001600160a01b031686611069565b8382815181106108fa576108fa61158d565b6020908102919091010152600101610850565b5050915091565b61091c6111b8565b6107ba5f6111e4565b61092d6111b8565b600180546001600160a01b0319166001600160a01b0383169081179091556040517fc0ebb188f905d128bcd7e4282dd1f9cf24cd331b69071002e488349aca6a867b905f90a250565b60058181548110610985575f80fd5b5f918252602090912001546001600160a01b0316905081565b6109a6611149565b60055433905f5b81811015610a68575f600582815481106109c9576109c961158d565b5f918252602090912001546001600160a01b031690506109e881611164565b6001600160a01b038083165f90815260026020526040902091909155841615610a5f57610a158185611069565b6001600160a01b038083165f818152600460209081526040808320948a16808452948252808320959095559181526002825283812054600383528482209382529290915291909120555b506001016109ad565b505f8311610ab25760405162461bcd60e51b8152602060048201526017602482015276042794e645374616b696e673a20616d6f756e74203d203604c1b60448201526064016104de565b8260075f828254610ac391906115dc565b9091555050335f9081526008602052604081208054859290610ae69084906115dc565b90915550610b2190506001600160a01b037f000000000000000000000000000000000000000000000000000000000000000016333086611233565b60405183815233907f9e71bc8eea02a63969f509818f2dafb9254532904319f9dbda79b67bd34a5f3d906020016105e1565b6005545f90815b81811015610c15575f60058281548110610b7657610b7661158d565b5f918252602090912001546001600160a01b03169050610b9581611164565b6001600160a01b038083165f90815260026020526040902091909155841615610c0c57610bc28185611069565b6001600160a01b038083165f818152600460209081526040808320948a16808452948252808320959095559181526002825283812054600383528482209382529290915291909120555b50600101610b5a565b506001546001600160a01b03163314610c705760405162461bcd60e51b815260206004820152601c60248201527f42794e645374616b696e673a206e6f74206469737472696275746f720000000060448201526064016104de565b6007541580610c7d575082155b610d48576001600160a01b0384165f9081526006602052604090205460ff16610ca957610ca984611269565b610cbe6001600160a01b038516333086611233565b600754610cd384670de0b6b3a76400006115ef565b610cdd9190611606565b6001600160a01b0385165f9081526002602052604081208054909190610d049084906115dc565b90915550506040518381526001600160a01b038516907ffa8f422f301d401d1b7f668526a543118e53cd8f443744796e97d5ee4aaabf539060200160405180910390a25b50505050565b610d56611149565b60055433905f5b81811015610e18575f60058281548110610d7957610d7961158d565b5f918252602090912001546001600160a01b03169050610d9881611164565b6001600160a01b038083165f90815260026020526040902091909155841615610e0f57610dc58185611069565b6001600160a01b038083165f818152600460209081526040808320948a16808452948252808320959095559181526002825283812054600383528482209382529290915291909120555b50600101610d5d565b506005545f5b818110156107a0575f60058281548110610e3a57610e3a61158d565b5f9182526020808320909101546001600160a01b03168083526004825260408084203385529092529120549091508015610ee0576001600160a01b0382165f818152600460209081526040808320338085529252822091909155610e9f91908361117e565b6040518181526001600160a01b0383169033907f0aa4d283470c904c551d18bb894d37e17674920f3261a7f854be501e25f421b79060200160405180910390a35b5050600101610e1e565b610ef2611149565b60055433905f5b81811015610fb4575f60058281548110610f1557610f1561158d565b5f918252602090912001546001600160a01b03169050610f3481611164565b6001600160a01b038083165f90815260026020526040902091909155841615610fab57610f618185611069565b6001600160a01b038083165f818152600460209081526040808320948a16808452948252808320959095559181526002825283812054600383528482209382529290915291909120555b50600101610ef9565b506001600160a01b0383165f9081526004602090815260408083203384529091529020548015611050576001600160a01b0384165f81815260046020908152604080832033808552925282209190915561100f91908361117e565b6040518181526001600160a01b0385169033907f0aa4d283470c904c551d18bb894d37e17674920f3261a7f854be501e25f421b79060200160405180910390a35b50505061060160015f8051602061162683398151915255565b6001600160a01b038083165f908152600360209081526040808320938516835292905290812054670de0b6b3a7640000906110a385611164565b6110ad91906115b5565b6001600160a01b0384165f908152600860205260409020546110cf91906115ef565b6110d99190611606565b6001600160a01b038085165f9081526004602090815260408083209387168352929052205461110891906115dc565b9392505050565b6111176111b8565b6001600160a01b03811661114057604051631e4fbdf760e01b81525f60048201526024016104de565b610601816111e4565b611151611369565b60025f8051602061162683398151915255565b6001600160a01b03165f9081526002602052604090205490565b61118b8383836001611398565b6111b357604051635274afe760e01b81526001600160a01b03841660048201526024016104de565b505050565b5f546001600160a01b031633146107ba5760405163118cdaa760e01b81523360048201526024016104de565b5f80546001600160a01b038381166001600160a01b0319831681178455604051919092169283917f8be0079c531659141344cd1fd0a4f28419497f9722a3daafe3b4186f6b6457e09190a35050565b6112418484848460016113fa565b610d4857604051635274afe760e01b81526001600160a01b03851660048201526024016104de565b6001600160a01b0381166112bf5760405162461bcd60e51b815260206004820152601960248201527f42794e645374616b696e673a207a65726f20616464726573730000000000000060448201526064016104de565b6001600160a01b0381165f9081526006602052604090205460ff16610601576001600160a01b0381165f81815260066020526040808220805460ff1916600190811790915560058054918201815583527f036b6384b5eca791c62761152d0c79bb0604c104a5fb6f4eb0703f3154bb3db00180546001600160a01b03191684179055517ff3e4c2c64e71e6ba2eaab9a599bced62f9eb91d2cda610bf41aa8c80ff2cf8269190a250565b5f80516020611626833981519152546002036107ba57604051633ee5aeb560e01b815260040160405180910390fd5b60405163a9059cbb60e01b5f8181526001600160a01b038616600452602485905291602083604481808b5af1925060015f511483166113ee5783831516156113e2573d5f823e3d81fd5b5f873b113d1516831692505b60405250949350505050565b6040516323b872dd60e01b5f8181526001600160a01b038781166004528616602452604485905291602083606481808c5af1925060015f5114831661145657838315161561144a573d5f823e3d81fd5b5f883b113d1516831692505b604052505f60605295945050505050565b80356001600160a01b038116811461147d575f80fd5b919050565b5f60208284031215611492575f80fd5b61110882611467565b5f602082840312156114ab575f80fd5b5035919050565b604080825283519082018190525f906020906060840190828701845b828110156114f35781516001600160a01b0316845292840192908401906001016114ce565b505050838103828501528451808252858301918301905f5b818110156115275783518352928401929184019160010161150b565b5090979650505050505050565b5f8060408385031215611545575f80fd5b61154e83611467565b915061155c60208401611467565b90509250929050565b5f8060408385031215611576575f80fd5b61157f83611467565b946020939093013593505050565b634e487b7160e01b5f52603260045260245ffd5b634e487b7160e01b5f52601160045260245ffd5b818103818111156103c8576103c86115a1565b634e487b7160e01b5f52604160045260245ffd5b808201808211156103c8576103c86115a1565b80820281158282048414176103c8576103c86115a1565b5f8261162057634e487b7160e01b5f52601260045260245ffd5b50049056fe9b779b17422d0df92223018b32b4d1fa46e071723d6817e2486d003becc55f00a26469706673582212209c8deff182fc967ef35897f521b67760c862f016f841793d9fdd930b8b05f7d464736f6c63430008180033",
  "linkReferences": {},
  "deployedLinkReferences": {}
}